:1000000014C1000033C1000031C100002FC1000045
:100010002DC100002BC1000029C1000027C1000034
:1000200025C1000023C1000021C100001FC1000044
:100030001DC100001BC1000019C1000017C1000054
:1000400015C1000013C1000011C100000FC1000064
:100050000DC100000BC1000009C10000A9C10000D2
:1000600005C1000003C1000001C10000FFC0000085
:10007000FDC00000FBC00000F9C00000F7C0000098
:10008000F5C00000F3C00000F1C00000EFC00000A8
:10009000EDC00000EBC00000E9C00000E7C00000B8
:1000A000E5C00000E3C00000E1C00000DFC00000C8
:1000B000DDC00000DBC00000D9C00000D7C00000D8
:1000C000D5C00000D3C00000D1C00000CFC00000E8
:1000D000CDC00000CBC00000C9C00000C7C00000F8
:1000E000C5C000008C018F017E0182018601C6011E
:1000F000930197019D01A101A501AB01AF01B301DE
:10010000C601B901BD01C101000020002300260085
:1001100029002C002F00320000010000030106011D
:10012000090100000A0B02090C0D0E080703040167
:1001300000000000000000000000000000000000BF
:10014000000000000000000000000000000012118C
:10015000100000000000000000000000000000008F
:100160000000000000000000000022002500280020
:100170002B002E00310034000201000005010801AF
:100180000B0100002100240027002A002D00300070
:10019000330001010000040107010A0105050505FE
:1001A000070508080808020202020A0A08080404EF
:1001B000040401010101010101010303030303031D
:1001C0000303040707070C0C0C0C0C0C0C0C0202AC
:1001D000020206060606060606060B0B0B0B0B0BA9
:1001E0000B0B010210202008081020401020408036
:1001F00002010201080402010102040810204080EB
:100200008040201008040201800402018040201078
:1002100008040201080402010102040810204080C1
:100220000102040810204080B20211241FBECFEF4B
:10023000D1E2DEBFCDBF00E00CBF22E0A0E0B2E023
:1002400001C01D92A231B207E1F711E0C5E1D1E092
:1002500000E005C021970109802FFE019ED1C43125
:10026000D10780E00807B1F7EDD09FC1C9CECF9389
:10027000DF9390E0FC01EE51FE4F2491FC01E45627
:10028000FE4F84918823C1F090E0880F991FFC01F4
:10029000EE57FE4FC591D491FC01E859FE4FA59150
:1002A000B4919FB7F8948881E22FE0958E238883DC
:1002B0008C91E823EC939FBFDF91CF91089590E05C
:1002C000FC01EE5DFE4F4491FC01EE51FE4F249186
:1002D000FC01E456FE4F9491992309F466C044232F
:1002E00009F454C050E0FA013197E231F10508F009
:1002F0004DC08827EE58FF4F8F4F4FC1809180002F
:100300008F7707C0809180008F7D03C0809180002F
:10031000877F809380003AC084B58F7702C084B510
:100320008F7D84BD33C08091B0008F7703C08091F2
:10033000B0008F7D8093B00029C0809190008F77AE
:1003400007C0809190008F7D03C080919000877FCF
:10035000809390001BC08091A0008F7707C0809190
:10036000A0008F7D03C08091A000877F8093A000B4
:100370000DC0809120018F7707C0809120018F7D73
:1003800003C080912001877F80932001E92FF0E056
:10039000EE0FFF1FE85FFE4FA591B491EC912E2365
:1003A00081E090E021F480E0089580E090E00895FD
:1003B0001F920F920FB60F9211242F933F938F939A
:1003C0009F93AF93BF9380910E0290910F02A091E3
:1003D0001002B091110230910D0223E0230F2D374E
:1003E00020F40196A11DB11D05C026E8230F029639
:1003F000A11DB11D20930D0280930E0290930F0258
:10040000A0931002B09311028091090290910A0208
:10041000A0910B02B0910C020196A11DB11D809319
:10042000090290930A02A0930B02B0930C02BF91B1
:10043000AF919F918F913F912F910F900FBE0F9091
:100440001F901895789484B5826084BD84B58160CE
:1004500084BD85B5826085BD85B5816085BD80918F
:100460006E00816080936E00109281008091810007
:1004700082608093810080918100816080938100FF
:10048000809180008160809380008091B1008460C1
:100490008093B1008091B00081608093B000809122
:1004A000910082608093910080919100816080939F
:1004B0009100809190008160809390008091A100D4
:1004C00082608093A1008091A10081608093A1004F
:1004D0008091A00081608093A000809121018260C2
:1004E000809321018091210181608093210180917D
:1004F000200181608093200180917A008460809344
:100500007A0080917A00826080937A0080917A00EC
:10051000816080937A0080917A00806880937A006D
:100520001092C100C0E0D0E080910002C8DE0197C7
:1005300031F4809106029091070201960AC08091E1
:100540000202BDDE019749F48091060290910702F4
:1005500001979093070280930602209729F30E9447
:100560000000E2CFCF93DF93C0E0D2E01F821E8273
:10057000188681E090E09983888382E090E09B83F5
:100580008A8383E090E09D838C8381E070DE8A81A2
:100590006EDE8C81DF91CF916ACEEE0FFF1F881F38
:0E05A0008BBF0790F691E02D1994F894FFCFD1
:00000001FF
